:100000000C942A000C9447000C9447000C94470071
:100010000C9447000C9447000C9447000C94470044
:100020000C9447000C9447000C9447000C94470034
:100030000C9447000C9447000C9447000C94470024
:100040000C9447000C9447000C9447000C94470014
:100050000C94470011241FBECFE5D8E0DEBFCDBF12
:1000600010E0A0E6B0E0E2ECF7E002C005900D92EF
:10007000A63CB107D9F720E0A6ECB0E001C01D9284
:10008000A63DB207E1F70E9454030C94DF030C94E1
:100090000000672B09F09FC0009711F4D8980895CD
:1000A0008130910511F4D99808958230910511F4A9
:1000B000DA9808958330910511F4DB98089584301F
:1000C000910511F4DC9808958530910511F4DD98BF
:1000D00008958630910511F4DE98089587309105D2
:1000E00011F4DF9808958A30910511F4C0980895AD
:1000F0008B30910511F4C19808958C30910511F45D
:10010000C29808958D30910511F4C39808958E30EA
:10011000910511F4C49808958F30910511F4C59894
:1001200008958031910511F4C698089581319105A3
:1001300011F4C79808958431910511F4A898089591
:100140008531910511F4A99808958631910511F42E
:10015000AA9808958731910511F4AB9808958831D4
:10016000910511F4AC9808958931910511F4AD9879
:1001700008958A31910511F4AE9808958B31910557
:1001800011F4AF9808958E31910511F49098089567
:100190008F31910511F4919808958032910511F4F1
:1001A000929808958132910511F4939808958232BE
:1001B000910511F4949808958332910511F495985E
:1001C00008958432910511F496980895859709F061
:1001D0009FC097980895009711F4D89A0895813098
:1001E000910511F4D99A08958230910511F4DA9AA3
:1001F00008958330910511F4DB9A089584309105B8
:1002000011F4DC9A08958530910511F4DD9A089572
:100210008630910511F4DE9A08958730910511F426
:10022000DF9A08958A30910511F4C09A08958B30B1
:10023000910511F4C19A08958C30910511F4C29A78
:1002400008958D30910511F4C39A08958E3091056B
:1002500011F4C49A08958F30910511F4C59A089548
:100260008031910511F4C69A08958131910511F4F8
:10027000C79A08958431910511F4A89A089585319B
:10028000910511F4A99A08958631910511F4AA9A5D
:1002900008958731910511F4AB9A0895883191053D
:1002A00011F4AC9A08958931910511F4AD9A08952D
:1002B0008A31910511F4AE9A08958B31910511F4AC
:1002C000AF9A08958E31910511F4909A08958F3167
:1002D000910511F4919A08958032910511F4929A42
:1002E00008958132910511F4939A0895823291050F
:1002F00011F4949A08958332910511F4959A089512
:100300008432910511F4969A0895859709F4979A85
:100310000895CF93C82F80FF07C061E070E082E2AC
:1003200090E00E94490006C060E070E082E290E048
:100330000E944900C1FF07C061E070E083E290E0E5
:100340000E94490006C060E070E083E290E00E94F5
:100350004900C2FF07C061E070E084E290E00E94C3
:10036000490006C060E070E084E290E00E9449002D
:10037000C3FF07C061E070E085E290E00E944900A1
:1003800006C060E070E085E290E00E944900CF91F5
:100390000895CF93C82F60E070E08AE190E00E945A
:1003A00049008C2F0E94890161E070E08BE190E0B0
:1003B0000E94490089EF90E00197F1F700C000002A
:1003C00060E070E08BE190E00E94490089EF90E0EE
:1003D0000197F1F700C00000CF910895CF93C62F89
:1003E000813059F480E8860F82958F700E94C90190
:1003F0008C2F8F700E94C9010CC0823051F480ECA8
:10040000860F82958F700E94C9018C2F8F700E9479
:10041000C901CF91089580E00E94890187E893E1A6
:100420000197F1F700C0000083E00E94C90181EE4E
:1004300094E00197F1F700C0000083E00E94C90139
:100440008DEB9AE00197F1F700C0000083E00E9475
:10045000C90182E00E94C90182E00E94C90188E0CE
:100460000E94C90180E00E94C9018CE00E94C9017C
:1004700080E00E94C90186E00E94C9010895CF93DF
:10048000C82F61E070E08AE190E00E9449008C2F63
:1004900082958F700E94890161E070E08BE190E0AD
:1004A0000E94490089EF90E00197F1F700C0000039
:1004B00060E070E08BE190E00E94490089EF90E0FD
:1004C0000197F1F700C000008C2F8F700E94890106
:1004D00061E070E08BE190E00E94490089EF90E0DC
:1004E0000197F1F700C0000060E070E08BE190E060
:1004F0000E94490089EF90E00197F1F700C00000E9
:10050000CF910895CF93DF93EC018881882331F058
:1005100021960E943F0289918111FBCFDF91CF91FB
:100520000895CF93DF93EA010E94EE011092D1006B
:10053000D093D300C093D200209709F040C080E34D
:100540008093D00021E030E025C021503109BE0168
:100550000E94B703805D8293862F972F009759F4EE
:100560003093D5002093D4001092D3001092D20083
:10057000332384F41FC02F3F4FEF340731F72FEFA1
:100580003FEF3093D5002093D4009093D300809315
:10059000D20010C0F901E153FF4F2EEC30E080E2B1
:1005A0008293E217F307E1F78FEF9FEF9093D50067
:1005B0008093D4008EEC90E00E94820208C0E1EDAE
:1005C000F0E0CE0122E030E0CAE0D0E0BECFDF9123
:1005D000CF91089560E081E00E94EE0180E690E016
:1005E0000E94820260E082E00E94EE0181E790E0DA
:1005F0000E9482024091CC005091CD0064E070E0F6
:1006000081E090E00E9491024091CA005091CB009D
:100610006DE070E081E090E00E9491024091C8009E
:100620005091C90064E070E082E090E00E94910285
:100630004091C6005091C7006DE070E082E090E00C
:100640000E9491020895CF93DF93EC0160E081E076
:100650000E94EE01C130D10529F482E890E00E94A9
:1006600082020EC0C230D10529F483E990E00E94D5
:10067000820206C0239721F484EA90E00E9482025D
:1006800060E082E00E94EE0185EB90E00E94820231
:100690002FE38DE093E0215080409040E1F700C0CF
:1006A0000000DF91CF91089517BA8FEF81BB84BB13
:1006B0000E940B0260E081E00E94EE0180E690E083
:1006C0000E94820260E082E00E94EE0181E790E0F9
:1006D0000E94820285E090E0C6B3C370D0E08C1720
:1006E0009D07E9F12097D9F18091C6009091C7004C
:1006F0009C012F5F3F4F3093C7002093C600C1304D
:10070000D10551F48091CA009091CB00019690934D
:10071000CB008093CA001EC0C230D10551F4809135
:10072000CC009091CD0001969093CD008093CC00A9
:1007300011C0C330D10551F48091C8009091C90017
:1007400001969093C9008093C80004C09093C7009D
:100750008093C600CE010E9423030E94EA0283ED2B
:1007600090E30197F1F700C00000CE01B5CF97FBF1
:10077000072E16F4009407D077FD09D00E94CB0312
:1007800007FC05D03EF4909581959F4F0895709594
:1007900061957F4F0895AA1BBB1B51E107C0AA1F9B
:1007A000BB1FA617B70710F0A61BB70B881F991F12
:1007B0005A95A9F780959095BC01CD010895F894BC
:0207C000FFCF69
:1007C20041703A202020302C204F723A20202030D5
:1007D2000042613A202020302C20546F3A20202001
:1007E20030004F72616E676520202020202020207B
:1007F2002020004170706C652020202020202020C5
:100802002020200042616E616E6120202020202085
:1008120020202020002020202020202020202020F6
:0608220020202020200030
:00000001FF
