:100000000C942A000C9434000C9434000C943400AA
:100010000C9434000C9434000C9434000C94340090
:100020000C9434000C9434000C9434000C94340080
:100030000C9434000C9434000C9434000C94340070
:100040000C9434000C9434000C9434000C94340060
:100050000C94340011241FBECFE5D8E0DEBFCDBF25
:100060000E9436000C9470000C94000017BA8D9A10
:100070001DBC1CBC83EC99E097BD86BD82E88FBD9A
:100080008BE18EBD8EEB90E09BBD8ABD44EB50E0D2
:100090002EEB30E067E890E0E4EB70E0A1EEF0E0FA
:1000A00086B38370813039F0823041F0833041F47F
:1000B0002A2F3F2F05C0262F392F02C02E2F372F72
:1000C0002417350711F03BBD2ABD4FEF5EE984E2EE
:1000D000415050408040E1F700C00000A901E0CF4E
:0400E000F894FFCFC2
:00000001FF
