:100000000C942A000C9434000C9434000C943400AA
:100010000C9434000C9434000C9434000C94340090
:100020000C9434000C9434000C9434000C94340080
:100030000C9434000C9434000C9434000C94340070
:100040000C9434000C9434000C9434000C94340060
:100050000C94340011241FBECFE5D8E0DEBFCDBF25
:100060000E9436000C9463000C94000017BA8FEFC6
:100070008ABB8D9A1DBC1CBC83EC99E097BD86BDE4
:1000800082E88FBD8BE18EBD8FEA90E09BBD8ABD7B
:100090006FEA50E04CE231E086B3282F217080FFF8
:1000A00003C0842F932F02C0862F952F9BBD8ABD3E
:1000B0002BBB2FEF8EE994E2215080409040E1F776
:0A00C00000C00000E9CFF894FFCF64
:00000001FF
